:100000006F00007D0000000032010000340100009C
:1000100000000000000000000000000000000000E0
:1000200000000000000000000000000000000000D0
:10003000CE07000000000000CE0700000000000016
:10004000CE070000CE070000CE070000CE0700005C
:10005000CE070000CE070000CE070000CE0700004C
:10006000CE070000CE070000CE070000CE0700003C
:10007000CE070000CE070000CE070000CE0700002C
:10008000CE070000CE070000CE07000036010000BA
:10009000CE070000CE070000CE07000000000000E1
:1000A000511126C022C206C4828282441244A24058
:1000B00031018280634E050263C305042E86AA8542
:1000C0007D5515C285466378B6006356C0000606A6
:1000D0008606E36CB6FE014563E4C500918D558D3F
:1000E00085820582F5FA82808682C93F2E858282CA
:1000F0003305A0406347B000B305B040C1B7B305B6
:10010000B0408682653F3305A0408282868263C705
:100110000500634905005D372E858282B305B04036
:10012000E35B05FE3305A040513F3305B0408282BA
:10013000000001A001A0373501408545130505C029
:10014000EF00F05183A74181850723AAF180730056
:100150002030EFF2FFF41111AA842E844545854525
:1001600002C002C202C402C602C802CA02CCEF0028
:10017000902A854537052000EF00D02B91477C80E1
:1001800071478D478A85371501403AC43EC2EF005A
:10019000806C894671478D478A8537150140748088
:1001A0003AC43EC24D2DB70700403EC8E0829307D7
:1001B000004037540040FC836C00916713050440F5
:1001C000FC8426C6EF009002854513050440EF002D
:1001D000F00F7101D9BDEFF2BFEC83A44181611131
:1001E0002AC02EC2B757004013850740B70502004A
:1001F000EF001015B757004051E5854513850740BE
:10020000EF00500EB70503008505B7570040138572
:100210000740EF00901137070300B75700409305E0
:10022000170035CD8245014613850740EF00100FBA
:10023000B705070093852508B75700401385074089
:10024000EF00B00E37070700B757004093052708A7
:1002500021CD924513850740EF00100CB70507002C
:10026000938545083755004013050540EF00F00B16
:10027000B70707009385470811E983A74181E3F396
:10028000F4FE29A003A74181E3FEE4F437550040C2
:10029000854513050540EF009006210139B583A778
:1002A0004181E3F4F4F6DDB783A74181E3F6F4F886
:1002B000F1BFBD4763E8A70085679387C7E63E9512
:1002C00008218280014582808D4763E8A7000605EA
:1002D000130505071375E50FFDBD8280EFF25FDCA6
:1002E0005111854513054002EF00F012B71401408B
:1002F000114489478A85138504807C8022C4A12B00
:100300008A8513850480608022C4B123930700048A
:100310008A85138504407C8022C4352B310171B35A
:10032000EFF21FD805652111854513050580EF0003
:10033000900E85454545EF00100E370516008545A2
:100340001305050CFD23C1476C007C863715014061
:100350009147373401403ECAFD29130504C0EF0020
:10036000F01F9307F00F8A85130504C03EC202C038
:1003700023040100EF005022130504C08545EF005F
:10038000702C81462946130504C093050004EF0034
:100390003028130504C08545EF00702C05468545BF
:1003A000130504C0EF00B025B7E700E0214723A202
:1003B000E7106101DDB93707002093074704903348
:1003C000A9466317D6009423A3800700850694A34B
:1003D000902389466318D600943391476394F600BE
:1003E0002312070482800605B70700201306350094
:1003F00013874704329703430700294693062500D5
:1004000093874704631BC3003383D700034603006D
:1004100005062300C300230007003387D7001023FD
:100420001947631BE60091E505053E951821050770
:1004300018A1B697238007008280EFF27FC61301D0
:1004400041FD1D26613DE93D2965930580041305A5
:1004500005C40133954513058004B53B373501408C
:100460008545130505C0EF0010183704002002C2AF
:1004700002C002CA0147814702CE02C802C6130465
:10048000440483A6418132466384C600854636CE45
:1004900037F600E001A8832606D1DD9A2328D6D0BE
:1004A0007300501083A64181B245E386B6FE37152E
:1004B0000140130505803AD03EC4852905811345C6
:1004C000F5FF937775003ECCBE86A2470257638541
:1004D000D70083A741813ECA83A64181D2470D46FA
:1004E0003AC49D8E6379D60083A641819387C6FF67
:1004F0003ECAE2473EC4937717003ED089E7A24741
:1005000093F6170081EA9376270099EAA24793F6BB
:10051000270099C683A741813EC0930700303EC2A1
:10052000814505453AD2C135814501456D3D61356D
:10053000A2470D46125793F637006396C6068247C8
:1005400003A7418185451D8F9247636CF70003A780
:10055000418123120400930707D03EC083A7418145
:100560003EC837070020A28681479304070405454B
:10057000E9E188223ED42ED23D8936D01D3BA257D8
:100580000547825613F3F70F92552A866317E30C3B
:1005900072473385F40085061313770033666600CF
:1005A00010A18507F9B7A247098B93F6270011EB35
:1005B0008DE2A24713F71700825795EF31E7814587
:1005C0004DB7E5DA824703A741811D8F9247E36269
:1005D000F7FE1830050718B0F93B824703A74181A1
:1005E0001D8F9247E367F7FC83A741813EC09307C5
:1005F00000043EC27DBF61D7824703A74181814588
:100600001D8F9247E36FF7F43830854501450507A4
:1006100038B0D13B824703A741811D8F9247E360E9
:10062000F7FA83A7418181453EC0930700043EC28B
:100630000DBF13F6F70F6369C5003386F40023007E
:10064000060085078506F5B7A8223ED42ED23D893F
:1006500036D08531A257925582563386F40008A2CF
:10066000850711476384E700850611B7B7060020A8
:1006700026879386860381440C239C22639BB700C4
:100680005C3063959702B707002083C7C703638F69
:100690009700268536D23AD005390257925637064A
:1006A00000201C239CA25C30230EF602850493F4E8
:1006B000F40F914785060507E390F4FC424783A7B2
:1006C0004181998F1307F00F6379F7005C3085073C
:1006D0005CB0C247938707103EC8B24722478507E0
:1006E0003EC6E24779BBEFF2BF9B371402401C4085
:1006F0003707FFFC414593E717001CC05C40F98FAA
:100700005CC01C403707F7FE7D17F98F1CC01C40EA
:100710003707FCFF7D17F98F1CC05C4041777D17C0
:10072000F98F5CC0B7079F001CC4A1211C4C93E744
:1007300007021CCCB71701409387074098431377F3
:10074000F7F098C398431367070898C3094798CBF5
:10075000B72702409843719B98C3984398C35C4065
:1007600093E707025CC091B2371702405C43A14691
:10077000B18B6394D7045C433775DC02130505C065
:10078000B7160240D842B7070020938707001183AD
:100790003D8BBA979C23D84293F5F70F1377070840
:1007A000B357F50005E3EFF2BF8FEFF03F91370746
:1007B00000202328A7006FF05F8F37356E011305E7
:1007C00005607DBF370700202328F700828001A045
:1007D0009701002093818106138181FC1705000099
:1007E0001305056A970500209385C581170600202B
:1007F0001306C68463FAC5008322050023A05500B2
:1008000011059105E3EAC5FE1705002013050583D0
:10081000938581816377B500232005001105E36D81
:10082000B5FE896293820288739002308D42739084
:10083000428097F2FFFF9382E27C93E23200739052
:100840005230EFF05FEA97020000938242BF73904C
:100850001234730020309845611122C226C093776C
:1008600007011376F70099C3DC415D8E83D2050042
:1008700093F7F20FA9C70323050081478544BD43C1
:1008800013048004B396F400B3F5D2006393B60268
:10089000930580026313B70854C993952700B39654
:1008A000B30093C6F6FFB3F66600B315B60033E3A4
:1008B000D5008507A146E397D7FC23206500930761
:1008C000F00F63F857040323450081468543130462
:1008D00080029304800493878600B397F300B3F5F6
:1008E000F2006392B702631E87025CC993952600EB
:1008F000BD47B397B70093C7F7FFB3F76700B315CA
:10090000B60033E3F5008506A147E396F6FC232203
:1009100065001244824421018280E31087F814C9E3
:10092000ADBFE31597FC1CC9D1B70845420541810D
:10093000828037030140B707001083264300E98F08
:1009400099CFB707C0FFF517F58F37070007D98F85
:1009500085C5370700F07D17698FD98F31A863519E
:100960000502B707E0FFED17F58F37070007D98FAE
:1009700081C506050581C98F370701405CC38280A8
:10098000B7073000131705013376F5004183631272
:10099000F602370600F97D16B3F7C600832643003A
:1009A000F18E2322D300E9D9558112053315A70012
:1009B000D9B7B7071000E98F91CF135605013D8ACB
:1009C0008D47B397C70093C7F7FFF58FB7060007AA
:1009D000D58FD1BF558112053317A7009347F7FF75
:1009E000F58FB7060007D58FC1D985BFEFF24FEB62
:1009F0005E211111AA84C207C18393F707FCC207C5
:100A0000C18328002E843EC2B52AC247B7450F00D5
:100A1000938505243E853EC0EFF04FEA924714408F
:100A2000C98FC207C183DEA09E2093951600C2071E
:100A3000C183F99BC207C1839EA0E1679387076AC0
:100A400063E4D7040245EFF06FE7AA8742054181CE
:100A500091466373D5009147C207C183DEAC9E20E7
:100A60005620322493E717009EA09E20D18EC20705
:100A7000C18393F757BFD58F9EA016245E24D58FD0
:100A80009EA471016FF06FE27220B167FD176311D0
:100A9000F6020245B695EFF06FE293170501C183A8
:100AA0009396470199E293E71700A166D58F7DB72A
:100AB000B387D50002458E07B385D700EFF00FE06E
:100AC00093170501C1839166D58FD9BF1E2189C5B2
:100AD00093E717001EA18280C207C183F99BC2075A
:100AE000C183CDBF1E2189C593E707101EA1828057
:100AF000C207C18393F7F7EFC207C183C5BF1E21A9
:100B000089C593E707201EA18280C207C18393F79E
:100B1000F7DFC207C183C5BF0EA9828093F7E50F37
:100B200019C293E715001EA982805E290A2D42058D
:100B30005D8D6D8D220521810D8D1335150082800F
:100B4000611102C002C293D7C5012AC23EC08247CA
:100B5000A205A18199CB9247D1073EC29247884313
:100B600021016D8D3335A00082809247C181E1075C
:100B7000EDB7371702401C430E0593F777F05D8DF4
:100B800008C38280EFF2CFD1371702405C43A14601
:100B90002A84B18B639CD7065C43B777DC029387CA
:100BA00007C01CC037160240544237070020130705
:100BB00087029182BD8A3697082358429375F50FB4
:100BC0001377070833D5A70001E73E85EFF00FCF75
:100BD00048C008C448C4B7170240DC43AD83FD8B4E
:100BE00013D737008A07F18BD98F93F637010D475A
:100BF0006373D700D1173707002013074701BA974F
:100C00008C23EFF0AFCB08C86FF02FCAB7376E0157
:100C10009387076079B799C5371702401C4FC98F72
:100C20001CCF8280B7170240984F1345F5FF798D8E
:100C300088CF828099C5371702405C4FC98F5CCF3F
:100C40008280B7170240D84F1345F5FF798DC8CF82
:100C5000828099C5371702405C47C98F5CC7828084
:100C6000B7170240D8471345F5FF798DC8C7828072
:100C700099C5371702401C4BC98F1CCB8280B71710
:100C80000240984B1345F5FF798D88CB82801E3149
:100C90009206C207C183F99BC207C1831EB11A2DF8
:100CA0001E3103538501420741833363C300137729
:100CB000C7F0558E518FB7360140C2074207231C3B
:100CC0006500938606C0C18341836306D500B706DD
:100CD00000406319D500F59BCD8F93E517001AAD41
:100CE0000EB18280D59BDD8D93E51500CDBF1E3101
:100CF00005631303F3CFC207C183BD9BC207C18342
:100D00001EB11A2D22061E31337767000353850169
:100D100042064182B2063363C300558E518FB73607
:100D20000140C2074207231C6500938606C0C183A9
:100D300041836306D500B7060040631DD5009205C8
:100D400093F7F7FDDD8DC205C18193E505011AAD6D
:100D50000EB1828093F7F7F5DD8DC5BFEFF24FB48A
:100D6000B7370140938707C0631DF50005648545CB
:100D700013050480F93D814513050480D93D6FF0CA
:100D8000CFB2B7070040E31CF5FE85450545CD35DC
:100D900081450545F13DE5B71E2137370140130771
:100DA00007C0C207C1836306E5003707004063162A
:100DB000E500BA2193F7F7F8D98FFA2193F7F7CF27
:100DC000C207C183D98F1EA1DE215EB59E211EB54B
:100DD000B7370140938707C06314F5009C251EB9FF
:100DE00085475EA982801E2189C593E717001EA151
:100DF0008280C207C183F99BC207C183CDBF5E2534
:100E000001C6CD8F5EA5828093C5F5FFED8FDDBF56
:100E1000EFF20FA9AE8493070006B2852A84054637
:100E20006390F402E9351E24C207C18393F7F7F8F3
:100E3000DD8C06A41E2493E777001EA46FF0EFA6B6
:100E4000B935D5B71E2189C593E707081EA1828051
:100E5000C207C18393F7F7F7C207C183C5BF93C524
:100E6000F5FFC205C1810EA9828000003F065B4FDD
:0C0E7000666D7D077F6F777C395E7971BD
:100E7C00010203040506070801020304050607081E
:100E8C0000127A000204060804080C10081018203E
:100E9C001020304020406080010203040506070842
:080EAC0001020304050607081A
:00000001FF
