:100000006F00902A0000000032010000340100005F
:1000100000000000000000000000000000000000E0
:1000200000000000000000000000000000000000D0
:10003000A60A000000000000A60A00000000000060
:10004000A60A0000A60A0000A60A0000A60A0000F0
:10005000A60A0000A60A0000A60A0000A60A0000E0
:10006000A60A0000A60A0000A60A0000A60A0000D0
:10007000A60A0000A60A0000A60A0000A60A0000C0
:10008000A60A0000A60A0000A60A00003601000029
:10009000A60A0000A60A0000A60A00000000000050
:1000A000511126C022C206C4828282441244A24058
:1000B00031018280634E050263C305042E86AA8542
:1000C0007D5515C285466378B6006356C0000606A6
:1000D0008606E36CB6FE014563E4C500918D558D3F
:1000E00085820582F5FA82808682C93F2E858282CA
:1000F0003305A0406347B000B305B040C1B7B305B6
:10010000B0408682653F3305A0408282868263C705
:100110000500634905005D372E858282B305B04036
:10012000E35B05FE3305A040513F3305B0408282BA
:10013000000001A001A0373501408545130505C029
:10014000EF00707F83A74182850723A2F1827300AD
:100150002030EFF2FFF41111AA842E844545854525
:1001600002C002C202C402C602C802CA02CCEF0028
:100170001058854537052000EF00505991477C8085
:1001800071478D478A85371501403AC43EC2EF005A
:10019000101A894671478D478A853715014074804A
:1001A0003AC43EC2EF00B018B70700403EC8E08234
:1001B0009307004037540040FC836C00916713059F
:1001C0000440FC8426C6EF00F02F8545130504404B
:1001D000EF00503D7101D1BDEFF29FEC83A441824D
:1001E00061112AC02EC2B757004013850740B705DA
:1001F0000200EF007042B757004051E58545138576
:100200000740EF00B03BB70503008505B757004036
:1002100013850740EF00F03E37070300B757004053
:100220009305170035CD8245014613850740EF0041
:10023000703CB705070093852508B7570040138524
:100240000740EF00103C37070700B7570040930501
:10025000270821CD924513850740EF007039B70577
:100260000700938545083755004013050540EF000A
:100270005039B70707009385470811E983A74182E2
:10028000E3F3F4FE29A003A74182E3FEE4F437552B
:100290000040854513050540EF00F033210131B5DD
:1002A00083A74182E3F4F4F6DDB783A74182E3F646
:1002B000F4F8F1BFBD4763E8A7008567938747144B
:1002C0003E9508218280014582808D4763E8A70022
:1002D0000605130505071375E50FFDBD8280EFF2D6
:1002E0003FDC5111854513054002EF005040B71423
:1002F0000140114489478A85138504807C8022C48B
:10030000EF00F0028A8513850480608022C4EF002C
:100310001002930700048A85138504407C8022C460
:10032000EF00F000310151B3EFF29FD705652111C5
:10033000854513050580EF00903B85454545EF0059
:10034000103B3705160085451305050CEF00F00B33
:10035000C1476C007C863715014091473734014016
:100360003ECAEF00C07C130504C0EF00B04C9307F9
:10037000F00F8A85130504C03EC202C023040100A9
:10038000EF00104F130504C08545EF00305981463A
:100390002946130504C093050004EF00F05413052B
:1003A00004C08545EF00305905468545130504C056
:1003B000EF007052B7E700E0214723A2E710610188
:1003C000EDB19387C1819033A9466317D60094237A
:1003D000A3800700850694A3902389466318D6005E
:1003E000943391476394F600239E01808280060532
:1003F000130635001387C18132970343070029464E
:10040000930625009387C181631BC3003383D70004
:100410000346030005062300C300230007003387BB
:10042000D70010231947631BE60091E505053E95AB
:100430001821050718A1B6972380070082809386AC
:10044000C1819C3295E79C2291E793072030239E3F
:10045000F180828085466396D700856793870790F1
:10046000FDB789466398D700856793871790C5B70E
:10047000FD179CB28280EFF2BFC2B707002083C78E
:10048000870381EB9387C1819833050798B3153FA4
:1004900029B97537F5BFEFF2BFC0130181FC4D23B9
:1004A0003D3D5935296593058004130505C4553133
:1004B0009545130580040D333735014085451305F7
:1004C00005C0EF00D03FB74757FF3ECA02C602C87B
:1004D00002C402D40144814702D802D002CE03A74D
:1004E0004182F2466304D70005473AD8B7F600E0E8
:1004F00001A803A706D15D9B23A8E6D07300501086
:1005000003A741827246E306C7FE37150140130573
:1005100005803EC0FD2505811345F5FF93777500E5
:100520003ED63E8782476385E70083A741823ED45B
:1005300003A74182A2578D4622C21D8F63F9E600B0
:1005400003A741829307C7FF3ED4B2573EC29377B9
:1005500014003ECC89E7924713F7170001EB13779D
:10056000240019EB924713F7270019C783A741828C
:100570003EC4930700303EC8814505458D3D814509
:100580000145B5353D3D83A6C1809387C18113D711
:1005900066000D8B85453EC06307B7028945630F32
:1005A000B7143DEF92478D4613F73700631AD7060D
:1005B00083A64182370700202320D70413071004A5
:1005C0002386E180B1A89247B70600208D4513F736
:1005D000370003A606046307B70203A74182118F01
:1005E0001306F02F6365E61083A6060403A7418275
:1005F000158F83C6C180133707301E0793F6F603A5
:10060000558F7DBFA24703A741821D8FC247637FDD
:10061000F70803A74182118F1306F02F6362E60CDF
:1006200003C6C1801307F00385466362C702924781
:10063000098813F7270063100414631707149247FF
:1006400093F61700E2476399071C6391061E03A700
:100650004182D24737C6A8001D8F6366C70037079F
:100660000020232E070282470147DC333ECC83C79C
:10067000C1803ED281EAB247638C072CE247114623
:100680006368F62C0946630FC71E0D466306C72232
:1006900005466307C71C925713F5F7036D1513350D
:1006A00015001E05238CA1800547FDAA83A5418264
:1006B00083A7418203A741823ED08247118F130650
:1006C000F02F239207006366E600938705D03EC4AF
:1006D00081BF03A74182130707D023A0E604F5B723
:1006E00003A74182130707D023A0E60415BF03A781
:1006F0004182130707D023A0E604FDB51377340029
:10070000B705002005EF924713F7270005CB13F735
:1007100017000DC703C7C1801305F0031373F70358
:10072000630AA300850693F6F603137707FC558F3B
:100730002386E18003A7418223A0E50483A6050464
:1007400003A74182158F9306F02FE3FBE6EC83C6E7
:10075000C180094693F6F6032386D1806396C600CE
:10076000B24793C717003EC683C6C18093F606FC06
:100770002386D18075B5E30407ECA24703A7418225
:100780001D8FC247E36DF7EA370400200327C40337
:1007900089466300D70663EBE6001DEBE93983A7C2
:1007A00041820547232EE4023ECA21A08D46630301
:1007B000D706A24703A7418202C61D8FC247E36046
:1007C000F7E883A741823EC4930700043EC885BD75
:1007D000370600200347860313471700230CE60261
:1007E0005939513983A741828946232ED4023ECA02
:1007F000C9B7370700208346870389C6230C070241
:100800009D3995398D390D47232EE40283A7418206
:100810003ECA45B78D31DDBFE38B06E2A24703A791
:10082000418281461D8FC247E363F7E282478545D7
:100830000145B8330507B8B35D3EA24703A741821F
:100840001D8FC247636BF70083A74182814602C6B2
:100850003EC4930700043EC8DDBB814602C6C5BB4B
:1008600092571386818113F7F70371171337170017
:100870001E0718B281EAB24763890710E2471147A1
:100880006365F710824736DAC8233D8925349257CD
:10089000D2561386818113F7F703751713371700A4
:1008A0001E07598D28A20D47E38706DC0946E30B96
:1008B000C7FC0D46E316C7FAE24713F5F700DD3A29
:1008C000925713F7F7037917133717001E07598D3F
:1008D0001375F50F1387818128B313870181138462
:1008E000818101450C201423639AB6008247D433DA
:1008F0006391A60283C64181638DA6003AD22ACCB9
:10090000E932142012578247624514A3D433238A54
:10091000D1809307150013F5F70F914605070504DD
:10092000E312D5FC03A7418282579306F00F1D8F77
:1009300063FAE6008247D8330507D8B38257938716
:1009400007103ED0F247124485073ECEB25741BE53
:100950000946630CC7020D46630AC704054636DA2A
:1009600082476307C70088233D89A932D2561DBB41
:1009700088333D898132C25713878181D2561396BD
:100980007700518D08B30947FDB1824736DAA823B5
:100990003D890D32B2471387818128A381CBE2477D
:1009A0001146D2560D47E372F6CE75B78247A8338B
:1009B0003D890932B2471397770011BFEFF24FEE2E
:1009C000371402401C403707FFFC414593E71700EE
:1009D0001CC05C40F98F5CC01C403707F7FE7D17D8
:1009E000F98F1CC01C403707FCFF7D17F98F1CC016
:1009F0005C4041777D17F98F5CC0B7079F001CC42E
:100A0000A9211C4C93E707021CCCB7170140938720
:100A1000074098431377F7F098C398431367070884
:100A200098C3094798CBB72702409843719B98C356
:100A3000984398C35C4093E707025CC06FF0EFE611
:100A4000371702405C43A146B18B6394D7045C43E3
:100A50003775DC02130505C0B7160240D842B70748
:100A600000209387070011833D8BBA979C23D842BF
:100A700093F5F70F13770708B357F50005E3EFF287
:100A80002FE2EFF0AFE3370700202328A7006FF035
:100A9000CFE137356E01130505607DBF37070020B4
:100AA0002328F700828001A097010020938101D9BB
:100AB000138181FC170500001305056A97F5FF1FD8
:100AC0009385455417F6FF1F1306465763FAC50072
:100AD0008322050023A0550011059105E3EAC5FE18
:100AE00017F5FF1F13058555938581826377B50040
:100AF000232005001105E36DB5FE8962938202880B
:100B0000739002308D427390428097F2FFFF938280
:100B1000624F93E2320073905230EFF03FEA970257
:100B200000009382829773901234730020309845AE
:100B3000611122C226C0937707011376F70099C38B
:100B4000DC415D8E83D2050093F7F20FA9C7032322
:100B5000050081478544BD4313048004B396F40027
:100B6000B3F5D2006393B602930580026313B7080E
:100B700054C993952700B396B30093C6F6FFB3F616
:100B80006600B315B60033E3D5008507A146E397A9
:100B9000D7FC232065009307F00F63F85704032365
:100BA00045008146854313048002930480049387A3
:100BB0008600B397F300B3F5F2006392B702631EA9
:100BC00087025CC993952600BD47B397B70093C7CA
:100BD000F7FFB3F76700B315B60033E3F5008506FA
:100BE000A147E396F6FC23226500124482442101CA
:100BF0008280E31087F814C9ADBFE31597FC1CC9C8
:100C0000D1B7084542054181828037030140B707CB
:100C1000001083264300E98F99CFB707C0FFF5176F
:100C2000F58F37070007D98F85C5370700F07D1787
:100C3000698FD98F31A863510502B707E0FFED171F
:100C4000F58F37070007D98F81C506050581C98F44
:100C5000370701405CC38280B707300013170501D6
:100C60003376F50041836312F602370600F97D16EC
:100C7000B3F7C60083264300F18E2322D300E9D9BF
:100C8000558112053315A700D9B7B7071000E98FB2
:100C900091CF135605013D8A8D47B397C70093C77F
:100CA000F7FFF58FB7060007D58FD1BF5581120525
:100CB0003317A7009347F7FFF58FB7060007D58FC7
:100CC000C1D985BFEFF2CFBD5E211111AA84C20741
:100CD000C18393F707FCC207C18328002E843EC25C
:100CE000B52AC247B7450F00938505243E853EC00F
:100CF000EFF0CFBC92471440C98FC207C183DEA07A
:100D00009E2093951600C207C183F99BC207C18339
:100D10009EA0E1679387076A63E4D7040245EFF07A
:100D2000EFB9AA874205418191466373D500914787
:100D3000C207C183DEAC9E205620322493E7170001
:100D40009EA09E20D18EC207C18393F757BFD58F37
:100D50009EA016245E24D58F9EA471016FF0EFB47F
:100D60007220B167FD176311F6020245B695EFF0E8
:100D7000EFB493170501C1839396470199E293E776
:100D80001700A166D58F7DB7B387D50002458E07C2
:100D9000B385D700EFF08FB293170501C183916639
:100DA000D58FD9BF1E2189C593E717001EA1828068
:100DB000C207C183F99BC207C183CDBF1E2189C56C
:100DC00093E707101EA18280C207C18393F7F7EF54
:100DD000C207C183C5BF1E2189C593E707201EA195
:100DE0008280C207C18393F7F7DFC207C183C5BF03
:100DF0000EA9828093F7E50F19C293E715001EA98B
:100E000082805E290A2D42055D8D6D8D220521812E
:100E10000D8D133515008280611102C002C293D777
:100E2000C5012AC23EC08247A205A18199CB924743
:100E3000D1073EC29247884321016D8D3335A00012
:100E400082809247C181E107EDB7371702401C430A
:100E50000E0593F777F05D8D08C38280EFF24FA403
:100E6000371702405C43A1462A84B18B639CD706A6
:100E70005C43B777DC02938707C01CC0371602407B
:100E8000544237070020130787029182BD8A3697A4
:100E9000082358429375F50F1377070833D5A70039
:100EA00001E73E85EFF08FA148C008C448C4B717DA
:100EB0000240DC43AD83FD8B13D737008A07F18BEB
:100EC000D98F93F637010D476373D700D1173707D2
:100ED000002013074701BA978C23EFF02F9E08C814
:100EE0006FF0AF9CB7376E019387076079B799C5EC
:100EF000371702401C4FC98F1CCF8280B7170240A2
:100F0000984F1345F5FF798D88CF828099C53717A3
:100F100002405C4FC98F5CCF8280B7170240D84F28
:100F20001345F5FF798DC8CF828099C537170240E8
:100F30005C47C98F5CC78280B7170240D84713450A
:100F4000F5FF798DC8C7828099C5371702401C4BC1
:100F5000C98F1CCB8280B7170240984B1345F5FF11
:100F6000798D88CB82801E319206C207C183F99B9E
:100F7000C207C1831EB11A2D1E31035385014207DA
:100F800041833363C3001377C7F0558E518FB73653
:100F90000140C2074207231C6500938606C0C18337
:100FA00041836306D500B70600406319D500F59B61
:100FB000CD8F93E517001AAD0EB18280D59BDD8DE4
:100FC00093E51500CDBF1E3105631303F3CFC207B0
:100FD000C183BD9BC207C1831EB11A2D22061E31DB
:100FE000337767000353850142064182B2063363BB
:100FF000C300558E518FB7360140C2074207231CEC
:101000006500938606C0C18341836306D500B70699
:101010000040631DD500920593F7F7FDDD8DC205F5
:10102000C18193E505011AAD0EB1828093F7F7F502
:10103000DD8DC5BFEFF2CF86B7370140938707C07C
:10104000631DF5000564854513050480F93D814560
:1010500013050480D93D6FF04F85B7070040E31CAE
:10106000F5FE85450545CD3581450545F13DE5B79D
:101070001E2137370140130707C0C207C18363062B
:10108000E500370700406316E500BA2193F7F7F84B
:10109000D98FFA2193F7F7CFC207C183D98F1EA149
:1010A000DE215EB59E211EB5B7370140938707C08C
:1010B0006314F5009C251EB985475EA982801E2118
:1010C00089C593E717001EA18280C207C183F99BDF
:1010D000C207C183CDBF5E2501C6CD8F5EA58280CC
:1010E00093C5F5FFED8FDDBFEFE29FFBAE84930765
:1010F0000006B2852A8405466390F402E9351E2471
:10110000C207C18393F7F7F8DD8C06A41E2493E78A
:1011100077001EA46FE07FF9B935D5B71E2189C5C8
:1011200093E707081EA18280C207C18393F7F7F7F0
:10113000C207C183C5BF93C5F5FFC205C1810EA912
:10114000828000003F065B4F666D7D077F6F777C76
:04115000395E79711A
:101154000102030405060708010203040506070843
:1011640000127A000204060804080C100810182063
:101174001020304020406080010203040506070867
:0811840001020304050607083F
:00000001FF
